{
  "contractName": "MyContract",
  "abi": [
    {
      "inputs": [],
      "stateMutability": "nonpayable",
      "type": "constructor"
    },
    {
      "anonymous": false,
      "inputs": [
        {
          "indexed": true,
          "internalType": "bytes32",
          "name": "role",
          "type": "bytes32"
        },
        {
          "indexed": true,
          "internalType": "bytes32",
          "name": "previousAdminRole",
          "type": "bytes32"
        },
        {
          "indexed": true,
          "internalType": "bytes32",
          "name": "newAdminRole",
          "type": "bytes32"
        }
      ],
      "name": "RoleAdminChanged",
      "type": "event"
    },
    {
      "anonymous": false,
      "inputs": [
        {
          "indexed": true,
          "internalType": "bytes32",
          "name": "role",
          "type": "bytes32"
        },
        {
          "indexed": true,
          "internalType": "address",
          "name": "account",
          "type": "address"
        },
        {
          "indexed": true,
          "internalType": "address",
          "name": "sender",
          "type": "address"
        }
      ],
      "name": "RoleGranted",
      "type": "event"
    },
    {
      "anonymous": false,
      "inputs": [
        {
          "indexed": true,
          "internalType": "bytes32",
          "name": "role",
          "type": "bytes32"
        },
        {
          "indexed": true,
          "internalType": "address",
          "name": "account",
          "type": "address"
        },
        {
          "indexed": true,
          "internalType": "address",
          "name": "sender",
          "type": "address"
        }
      ],
      "name": "RoleRevoked",
      "type": "event"
    },
    {
      "inputs": [],
      "name": "DEFAULT_ADMIN_ROLE",
      "outputs": [
        {
          "internalType": "bytes32",
          "name": "",
          "type": "bytes32"
        }
      ],
      "stateMutability": "view",
      "type": "function",
      "constant": true
    },
    {
      "inputs": [],
      "name": "WITHDRAWER_ROLE",
      "outputs": [
        {
          "internalType": "bytes32",
          "name": "",
          "type": "bytes32"
        }
      ],
      "stateMutability": "view",
      "type": "function",
      "constant": true
    },
    {
      "inputs": [
        {
          "internalType": "bytes32",
          "name": "role",
          "type": "bytes32"
        }
      ],
      "name": "getRoleAdmin",
      "outputs": [
        {
          "internalType": "bytes32",
          "name": "",
          "type": "bytes32"
        }
      ],
      "stateMutability": "view",
      "type": "function",
      "constant": true
    },
    {
      "inputs": [
        {
          "internalType": "bytes32",
          "name": "role",
          "type": "bytes32"
        },
        {
          "internalType": "address",
          "name": "account",
          "type": "address"
        }
      ],
      "name": "grantRole",
      "outputs": [],
      "stateMutability": "nonpayable",
      "type": "function"
    },
    {
      "inputs": [
        {
          "internalType": "bytes32",
          "name": "role",
          "type": "bytes32"
        },
        {
          "internalType": "address",
          "name": "account",
          "type": "address"
        }
      ],
      "name": "hasRole",
      "outputs": [
        {
          "internalType": "bool",
          "name": "",
          "type": "bool"
        }
      ],
      "stateMutability": "view",
      "type": "function",
      "constant": true
    },
    {
      "inputs": [
        {
          "internalType": "bytes32",
          "name": "role",
          "type": "bytes32"
        },
        {
          "internalType": "address",
          "name": "account",
          "type": "address"
        }
      ],
      "name": "renounceRole",
      "outputs": [],
      "stateMutability": "nonpayable",
      "type": "function"
    },
    {
      "inputs": [
        {
          "internalType": "bytes32",
          "name": "role",
          "type": "bytes32"
        },
        {
          "internalType": "address",
          "name": "account",
          "type": "address"
        }
      ],
      "name": "revokeRole",
      "outputs": [],
      "stateMutability": "nonpayable",
      "type": "function"
    },
    {
      "inputs": [
        {
          "internalType": "bytes4",
          "name": "interfaceId",
          "type": "bytes4"
        }
      ],
      "name": "supportsInterface",
      "outputs": [
        {
          "internalType": "bool",
          "name": "",
          "type": "bool"
        }
      ],
      "stateMutability": "view",
      "type": "function",
      "constant": true
    },
    {
      "inputs": [
        {
          "internalType": "contract IERC20",
          "name": "_token",
          "type": "address"
        },
        {
          "internalType": "address",
          "name": "_recipient",
          "type": "address"
        },
        {
          "internalType": "uint256",
          "name": "_amount",
          "type": "uint256"
        }
      ],
      "name": "withdraw",
      "outputs": [],
      "stateMutability": "nonpayable",
      "type": "function"
    }
  ],
  "bytecode": "0x60806040523480156200001157600080fd5b50620000537f10dac8c06a04bec0b551627dad28bc00d6516b0caacd1c7b345fcdb5211334e4620000476200005960201b60201c565b6200006160201b60201c565b620001d2565b600033905090565b6200007382826200007760201b60201c565b5050565b6200008982826200016860201b60201c565b6200016457600160008084815260200190815260200160002060000160008373ffffffffffffffffffffffffffffffffffffffff1673ffffffffffffffffffffffffffffffffffffffff16815260200190815260200160002060006101000a81548160ff021916908315150217905550620001096200005960201b60201c565b73ffffffffffffffffffffffffffffffffffffffff168173ffffffffffffffffffffffffffffffffffffffff16837f2f8788117e7eff1d82e926ec794901d17c78024a50270940304540a733656f0d60405160405180910390a45b5050565b600080600084815260200190815260200160002060000160008373ffffffffffffffffffffffffffffffffffffffff1673ffffffffffffffffffffffffffffffffffffffff16815260200190815260200160002060009054906101000a900460ff16905092915050565b6116ac80620001e26000396000f3fe608060405234801561001057600080fd5b50600436106100935760003560e01c806385f438c11161006657806385f438c11461013057806391d148541461014e578063a217fddf1461017e578063d547741f1461019c578063d9caed12146101b857610093565b806301ffc9a714610098578063248a9ca3146100c85780632f2ff15d146100f857806336568abe14610114575b600080fd5b6100b260048036038101906100ad9190610cd3565b6101d4565b6040516100bf9190610d1b565b60405180910390f35b6100e260048036038101906100dd9190610d6c565b61024e565b6040516100ef9190610da8565b60405180910390f35b610112600480360381019061010d9190610e21565b61026d565b005b61012e60048036038101906101299190610e21565b610296565b005b610138610319565b6040516101459190610da8565b60405180910390f35b61016860048036038101906101639190610e21565b61033d565b6040516101759190610d1b565b60405180910390f35b6101866103a7565b6040516101939190610da8565b60405180910390f35b6101b660048036038101906101b19190610e21565b6103ae565b005b6101d260048036038101906101cd9190610ed5565b6103d7565b005b60007f7965db0b000000000000000000000000000000000000000000000000000000007bffffffffffffffffffffffffffffffffffffffffffffffffffffffff1916827bffffffffffffffffffffffffffffffffffffffffffffffffffffffff19161480610247575061024682610477565b5b9050919050565b6000806000838152602001908152602001600020600101549050919050565b6102768261024e565b610287816102826104e1565b6104e9565b6102918383610586565b505050565b61029e6104e1565b73ffffffffffffffffffffffffffffffffffffffff168173ffffffffffffffffffffffffffffffffffffffff161461030b576040517f08c379a000000000000000000000000000000000000000000000000000000000815260040161030290610fab565b60405180910390fd5b6103158282610666565b5050565b7f10dac8c06a04bec0b551627dad28bc00d6516b0caacd1c7b345fcdb5211334e481565b600080600084815260200190815260200160002060000160008373ffffffffffffffffffffffffffffffffffffffff1673ffffffffffffffffffffffffffffffffffffffff16815260200190815260200160002060009054906101000a900460ff16905092915050565b6000801b81565b6103b78261024e565b6103c8816103c36104e1565b6104e9565b6103d28383610666565b505050565b6104087f10dac8c06a04bec0b551627dad28bc00d6516b0caacd1c7b345fcdb5211334e46104036104e1565b61033d565b610447576040517f08c379a000000000000000000000000000000000000000000000000000000000815260040161043e9061103d565b60405180910390fd5b61047282828573ffffffffffffffffffffffffffffffffffffffff166107479092919063ffffffff16565b505050565b60007f01ffc9a7000000000000000000000000000000000000000000000000000000007bffffffffffffffffffffffffffffffffffffffffffffffffffffffff1916827bffffffffffffffffffffffffffffffffffffffffffffffffffffffff1916149050919050565b600033905090565b6104f3828261033d565b610582576105188173ffffffffffffffffffffffffffffffffffffffff1660146107cd565b6105268360001c60206107cd565b60405160200161053792919061116f565b6040516020818303038152906040526040517f08c379a000000000000000000000000000000000000000000000000000000000815260040161057991906111f3565b60405180910390fd5b5050565b610590828261033d565b61066257600160008084815260200190815260200160002060000160008373ffffffffffffffffffffffffffffffffffffffff1673ffffffffffffffffffffffffffffffffffffffff16815260200190815260200160002060006101000a81548160ff0219169083151502179055506106076104e1565b73ffffffffffffffffffffffffffffffffffffffff168173ffffffffffffffffffffffffffffffffffffffff16837f2f8788117e7eff1d82e926ec794901d17c78024a50270940304540a733656f0d60405160405180910390a45b5050565b610670828261033d565b1561074357600080600084815260200190815260200160002060000160008373ffffffffffffffffffffffffffffffffffffffff1673ffffffffffffffffffffffffffffffffffffffff16815260200190815260200160002060006101000a81548160ff0219169083151502179055506106e86104e1565b73ffffffffffffffffffffffffffffffffffffffff168173ffffffffffffffffffffffffffffffffffffffff16837ff6391f5c32d9c69d2a47ea670b442974b53935d1edc7fd64eb21e047a839171b60405160405180910390a45b5050565b6107c88363a9059cbb60e01b8484604051602401610766929190611233565b604051602081830303815290604052907bffffffffffffffffffffffffffffffffffffffffffffffffffffffff19166020820180517bffffffffffffffffffffffffffffffffffffffffffffffffffffffff8381831617835250505050610a09565b505050565b6060600060028360026107e0919061128b565b6107ea91906112e5565b67ffffffffffffffff8111156108035761080261133b565b5b6040519080825280601f01601f1916602001820160405280156108355781602001600182028036833780820191505090505b5090507f30000000000000000000000000000000000000000000000000000000000000008160008151811061086d5761086c61136a565b5b60200101907effffffffffffffffffffffffffffffffffffffffffffffffffffffffffffff1916908160001a9053507f7800000000000000000000000000000000000000000000000000000000000000816001815181106108d1576108d061136a565b5b60200101907effffffffffffffffffffffffffffffffffffffffffffffffffffffffffffff1916908160001a90535060006001846002610911919061128b565b61091b91906112e5565b90505b60018111156109bb577f3031323334353637383961626364656600000000000000000000000000000000600f86166010811061095d5761095c61136a565b5b1a60f81b8282815181106109745761097361136a565b5b60200101907effffffffffffffffffffffffffffffffffffffffffffffffffffffffffffff1916908160001a905350600485901c9450806109b490611399565b905061091e565b50600084146109ff576040517f08c379a00000000000000000000000000000000000000000000000000000000081526004016109f69061140f565b60405180910390fd5b8091505092915050565b6000610a6b826040518060400160405280602081526020017f5361666545524332303a206c6f772d6c6576656c2063616c6c206661696c65648152508573ffffffffffffffffffffffffffffffffffffffff16610ad09092919063ffffffff16565b9050600081511115610acb5780806020019051810190610a8b919061145b565b610aca576040517f08c379a0000000000000000000000000000000000000000000000000000000008152600401610ac1906114fa565b60405180910390fd5b5b505050565b6060610adf8484600085610ae8565b90509392505050565b606082471015610b2d576040517f08c379a0000000000000000000000000000000000000000000000000000000008152600401610b249061158c565b60405180910390fd5b610b3685610bfc565b610b75576040517f08c379a0000000000000000000000000000000000000000000000000000000008152600401610b6c906115f8565b60405180910390fd5b6000808673ffffffffffffffffffffffffffffffffffffffff168587604051610b9e919061165f565b60006040518083038185875af1925050503d8060008114610bdb576040519150601f19603f3d011682016040523d82523d6000602084013e610be0565b606091505b5091509150610bf0828286610c0f565b92505050949350505050565b600080823b905060008111915050919050565b60608315610c1f57829050610c6f565b600083511115610c325782518084602001fd5b816040517f08c379a0000000000000000000000000000000000000000000000000000000008152600401610c6691906111f3565b60405180910390fd5b9392505050565b600080fd5b60007fffffffff0000000000000000000000000000000000000000000000000000000082169050919050565b610cb081610c7b565b8114610cbb57600080fd5b50565b600081359050610ccd81610ca7565b92915050565b600060208284031215610ce957610ce8610c76565b5b6000610cf784828501610cbe565b91505092915050565b60008115159050919050565b610d1581610d00565b82525050565b6000602082019050610d306000830184610d0c565b92915050565b6000819050919050565b610d4981610d36565b8114610d5457600080fd5b50565b600081359050610d6681610d40565b92915050565b600060208284031215610d8257610d81610c76565b5b6000610d9084828501610d57565b91505092915050565b610da281610d36565b82525050565b6000602082019050610dbd6000830184610d99565b92915050565b600073ffffffffffffffffffffffffffffffffffffffff82169050919050565b6000610dee82610dc3565b9050919050565b610dfe81610de3565b8114610e0957600080fd5b50565b600081359050610e1b81610df5565b92915050565b60008060408385031215610e3857610e37610c76565b5b6000610e4685828601610d57565b9250506020610e5785828601610e0c565b9150509250929050565b6000610e6c82610de3565b9050919050565b610e7c81610e61565b8114610e8757600080fd5b50565b600081359050610e9981610e73565b92915050565b6000819050919050565b610eb281610e9f565b8114610ebd57600080fd5b50565b600081359050610ecf81610ea9565b92915050565b600080600060608486031215610eee57610eed610c76565b5b6000610efc86828701610e8a565b9350506020610f0d86828701610e0c565b9250506040610f1e86828701610ec0565b9150509250925092565b600082825260208201905092915050565b7f416363657373436f6e74726f6c3a2063616e206f6e6c792072656e6f756e636560008201527f20726f6c657320666f722073656c660000000000000000000000000000000000602082015250565b6000610f95602f83610f28565b9150610fa082610f39565b604082019050919050565b60006020820190508181036000830152610fc481610f88565b9050919050565b7f53656e64657220646964206e6f7420686176652077697468647261766572207260008201527f6f6c650000000000000000000000000000000000000000000000000000000000602082015250565b6000611027602383610f28565b915061103282610fcb565b604082019050919050565b600060208201905081810360008301526110568161101a565b9050919050565b600081905092915050565b7f416363657373436f6e74726f6c3a206163636f756e7420000000000000000000600082015250565b600061109e60178361105d565b91506110a982611068565b601782019050919050565b600081519050919050565b60005b838110156110dd5780820151818401526020810190506110c2565b838111156110ec576000848401525b50505050565b60006110fd826110b4565b611107818561105d565b93506111178185602086016110bf565b80840191505092915050565b7f206973206d697373696e6720726f6c6520000000000000000000000000000000600082015250565b600061115960118361105d565b915061116482611123565b601182019050919050565b600061117a82611091565b915061118682856110f2565b91506111918261114c565b915061119d82846110f2565b91508190509392505050565b6000601f19601f8301169050919050565b60006111c5826110b4565b6111cf8185610f28565b93506111df8185602086016110bf565b6111e8816111a9565b840191505092915050565b6000602082019050818103600083015261120d81846111ba565b905092915050565b61121e81610de3565b82525050565b61122d81610e9f565b82525050565b60006040820190506112486000830185611215565b6112556020830184611224565b9392505050565b7f4e487b7100000000000000000000000000000000000000000000000000000000600052601160045260246000fd5b600061129682610e9f565b91506112a183610e9f565b9250817fffffffffffffffffffffffffffffffffffffffffffffffffffffffffffffffff04831182151516156112da576112d961125c565b5b828202905092915050565b60006112f082610e9f565b91506112fb83610e9f565b9250827fffffffffffffffffffffffffffffffffffffffffffffffffffffffffffffffff038211156113305761132f61125c565b5b828201905092915050565b7f4e487b7100000000000000000000000000000000000000000000000000000000600052604160045260246000fd5b7f4e487b7100000000000000000000000000000000000000000000000000000000600052603260045260246000fd5b60006113a482610e9f565b915060008214156113b8576113b761125c565b5b600182039050919050565b7f537472696e67733a20686578206c656e67746820696e73756666696369656e74600082015250565b60006113f9602083610f28565b9150611404826113c3565b602082019050919050565b60006020820190508181036000830152611428816113ec565b9050919050565b61143881610d00565b811461144357600080fd5b50565b6000815190506114558161142f565b92915050565b60006020828403121561147157611470610c76565b5b600061147f84828501611446565b91505092915050565b7f5361666545524332303a204552433230206f7065726174696f6e20646964206e60008201527f6f74207375636365656400000000000000000000000000000000000000000000602082015250565b60006114e4602a83610f28565b91506114ef82611488565b604082019050919050565b60006020820190508181036000830152611513816114d7565b9050919050565b7f416464726573733a20696e73756666696369656e742062616c616e636520666f60008201527f722063616c6c0000000000000000000000000000000000000000000000000000602082015250565b6000611576602683610f28565b91506115818261151a565b604082019050919050565b600060208201905081810360008301526115a581611569565b9050919050565b7f416464726573733a2063616c6c20746f206e6f6e2d636f6e7472616374000000600082015250565b60006115e2601d83610f28565b91506115ed826115ac565b602082019050919050565b60006020820190508181036000830152611611816115d5565b9050919050565b600081519050919050565b600081905092915050565b600061163982611618565b6116438185611623565b93506116538185602086016110bf565b80840191505092915050565b600061166b828461162e565b91508190509291505056fea2646970667358221220f27984828a3c860162d70db1aa77102bc045ff7f004678dd363765a26c6c8caa64736f6c63430008080033",
  "immutableReferences": {},
  "source": "//SPDX-License-Identifier: MIT\r\npragma solidity ^0.8.7;\r\n\r\nimport \"@openzeppelin/contracts/token/ERC20/IERC20.sol\";\r\nimport \"@openzeppelin/contracts/token/ERC20/utils/SafeERC20.sol\";\r\nimport \"@openzeppelin/contracts/access/AccessControl.sol\";\r\nimport \"@openzeppelin/contracts/utils/Context.sol\";\r\n\r\ncontract MyContract is Context, AccessControl {\r\n    using SafeERC20 for IERC20;\r\n\r\n    bytes32 public constant WITHDRAWER_ROLE = keccak256(\"WITHDRAWER_ROLE\");\r\n\r\n    constructor() {\r\n        _setupRole(WITHDRAWER_ROLE, _msgSender());\r\n    }\r\n\r\n    function withdraw(\r\n        IERC20 _token,\r\n        address _recipient,\r\n        uint256 _amount\r\n    ) public {\r\n        require(\r\n            hasRole(WITHDRAWER_ROLE, _msgSender()),\r\n            \"Sender did not have withdraver role\"\r\n        );\r\n\r\n        _token.safeTransfer(_recipient, _amount);\r\n    }\r\n}\r\n",
  "sourcePath": "D:\\Users\\yesla\\Desktop\\solidityworkspace\\erc20\\contracts\\MyContract.sol",
  "compiler": {
    "name": "solc",
    "version": "0.8.8+commit.dddeac2f.Emscripten.clang"
  },
  "schemaVersion": "3.4.3",
  "updatedAt": "2021-09-28T04:43:48.691Z",
  "networkType": "ethereum",
  "devdoc": {
    "kind": "dev",
    "methods": {
      "getRoleAdmin(bytes32)": {
        "details": "Returns the admin role that controls `role`. See {grantRole} and {revokeRole}. To change a role's admin, use {_setRoleAdmin}."
      },
      "grantRole(bytes32,address)": {
        "details": "Grants `role` to `account`. If `account` had not been already granted `role`, emits a {RoleGranted} event. Requirements: - the caller must have ``role``'s admin role."
      },
      "hasRole(bytes32,address)": {
        "details": "Returns `true` if `account` has been granted `role`."
      },
      "renounceRole(bytes32,address)": {
        "details": "Revokes `role` from the calling account. Roles are often managed via {grantRole} and {revokeRole}: this function's purpose is to provide a mechanism for accounts to lose their privileges if they are compromised (such as when a trusted device is misplaced). If the calling account had been granted `role`, emits a {RoleRevoked} event. Requirements: - the caller must be `account`."
      },
      "revokeRole(bytes32,address)": {
        "details": "Revokes `role` from `account`. If `account` had been granted `role`, emits a {RoleRevoked} event. Requirements: - the caller must have ``role``'s admin role."
      },
      "supportsInterface(bytes4)": {
        "details": "See {IERC165-supportsInterface}."
      }
    },
    "version": 1
  },
  "userdoc": {
    "kind": "user",
    "methods": {},
    "version": 1
  }
}